:040000003C011001AE
:04000400343D100077
:04000800241E0000B2
:04000C003C01004073
:04001000343F001861
:0400140008100007C9
:040018005000000094
:04001C0027BDFFD825
:04002000AFBF00244A
:04002400AFBE00204B
:0400280003A0F02021
:04002C00AFC0001849
:040030000810001B99
:040034008FC400185D
:040038003C01004047
:04003C00343F004409
:04004000081000F1B3
:04004400384200013D
:04004800304200FF43
:04004C00104000045C
:040050008FC4001841
:040054003C0100402B
:04005800343F0060D1
:04005C000810005E2A
:040060008FC2001833
:040064002442000131
:04006800AFC200180B
:04006C008FC2001827
:04007000284200041E
:040074001040000137
:040078000810000D5F
:04007C00AFC0001CF5
:040080000810002440
:040084008FC2001C0B
:04008800244200010D
:04008C00AFC2001CE3
:040090008FC2001CFF
:0400940028420004FA
:0400980038420001E9
:04009C001040FFF918
:0400A000000010212B
:0400A400001EE82131
:0400A8008FBF0024E2
:0400AC008FBE0020E3
:0400B00027BD002840
:0400B40003E000085D
:0400B8008FC40018D9
:0400BC003C010040C3
:0400C000343F00C801
:0400C400081000F12F
:0400C80038420001B9
:0400CC00304200FFBF
:0400D00010400004D8
:0400D4008FC40018BD
:0400D8003C010040A7
:0400DC00343F00E4C9
:0400E0000810005EA6
:0400E40027C2001C13
:0400E80000022021D1
:0400EC003C01004093
:0400F000343F00F8A1
:0400F4000810008769
:0400F800AFC200187B
:0400FC008FC3001896
:040100002402FFFFD7
:040104001062000184
:040108000810002EAD
:04010C003C011001A1
:04011000342200286D
:040114008C42000019
:040118002444FFFF7D
:04011C003C01100191
:04012000342300285C
:04012400AC640000C7
:040128003C01100185
:04012C003424000077
:040130000002188031
:04013400000318426A
:040138000003184365
:04013C000003188024
:0401400003E20826A8
:0401440003E20827A3
:040148003C01100165
:04014C003422000059
:040150003041FFFF3C
:0401540000811021F5
:040158000062102110
:04015C008FC300301D
:04016000AC430000AC
:04016400001EE82170
:040168008FBF002C19
:04016C008FBE00281A
:0401700027BD003077
:0401740003E000089C
:0401780027BDFFD0D0
:04017C00AFBF002CE5
:04018000AFBE0028E6
:04018400001DF02149
:04018800AFC40030D0
:04018C008FC40030EC
:040190003C010040EE
:04019400343F019C57
:04019800081000D17A
:04019C0027C2001C5A
:0401A0008FC50030D7
:0401A4000002202114
:0401A8003C010040D6
:0401AC00343F01B427
:0401B00008100074BF
:0401B40027C2001C42
:0401B8000002202100
:0401BC003C010040C2
:0401C000343F01C8FF
:0401C4000810008798
:0401C800AFC20018AA
:0401CC000810003FD8
:0401D00027BDFFE860
:0401D400AFBE0014A6
:0401D800001DF021F5
:0401DC0003DD082314
:0401E000AFC4001890
:0401E400AFC5001C87
:0401E8008FC2001CA6
:0401EC00AFC2000896
:0401F000AFC0000C90
:0401F4008FC200189E
:0401F8008FC40008A8
:0401FC008FC3000CA1
:04020000AC4400000A
:04020400AC43000403
:040208008FC2001889
:04020C00001EE821C7
:040210008FBE001489
:0402140027BD0018EA
:0402180003E00008F7
:04021C0027BDFFE01B
:04022000AFBF001C50
:04022400AFBE001851
:04022800001DF020A5
:04022C00AFC400203B
:04023000081000A210
:040234008FC2002055
:040238008C430000F3
:04023C008FC200204D
:040240008C420004E8
:04024400000228216B
:04024800000320216E
:04024C003C01004031
:04025000343F0258DD
:04025400081000ADE1
:04025800104000064C
:04025C008FC200202D
:040260008C420004C8
:04026400244400012D
:040268008FC3002020
:04026C00AC6400047A
:04027000081000A8CA
:040274008FC2002015
:040278008C420004B0
:04027C002443000116
:040280008FC2002009
:04028400AC43000483
:040288008FC2002001
:04028C008C4200049C
:0402900028420004FC
:040294001040000115
:040298000810008DBD
:04029C002402FFFF3A
:0402A000001EE82133
:0402A4008FBF001CEC
:0402A8008FBE0018ED
:0402AC0027BD00204A
:0402B00003E000085F
:0402B40027BDFFE083
:0402B800AFBE001CB9
:0402BC00001DF02110
:0402C000AFC40020A7
:0402C400AFC500249E
:0402C8003C011001E4
:0402CC0034220014C4
:0402D0008FC30020B8
:0402D400000318808B
:0402D800006210218F
:0402DC008C42000050
:0402E000AFC2001099
:0402E40024020001EF
:0402E800AFC2000899
:0402EC00AFC0000C93
:0402F000081000C32F
:0402F4008FC20008AD
:0402F80000021040B0
:0402FC00AFC2000885
:040300008FC2000C9C
:04030400244200018E
:04030800AFC2000C74
:04030C008FC3000C8F
:040310008FC2002474
:040314000062102A49
:040318001040000190
:04031C00081000BD08
:040320008FC300087F
:040324008FC2001074
:04032800006210243B
:04032C000002102A91
:04033000304200FF58
:04033400001EE8219E
:040338008FBE001C58
:04033C0027BD0020B9
:0403400003E00008CE
:0403440027BDFFE0F2
:04034800AFBE001C28
:04034C00001DF0217F
:04035000AFC4002016
:04035400240200017E
:04035800AFC2000828
:04035C00AFC0000C22
:04036000081000DFA2
:040364008FC200083C
:04036800000212007D
:04036C00AFC2000814
:040370008FC2000C2C
:04037400244200011E
:04037800AFC2000C04
:04037C008FC3000C1F
:040380008FC2002008
:040384000062102AD9
:040388001040000120
:04038C00081000D97C
:040390003C0110011B
:0403940034220024EB
:04039800AFC20010E0
:04039C008FC20010FC
:0403A0008C4300008A
:0403A4008FC20008FC
:0403A80000621825B2
:0403AC008FC20010EC
:0403B000AC4300005A
:0403B400001EE8211E
:0403B8008FBE001CD8
:0403BC0027BD002039
:0403C00003E000084E
:0403C40027BDFFE072
:0403C800AFBE001CA8
:0403CC00001DF021FF
:0403D000AFC4002096
:0403D40034020001EE
:0403D800AFC20008A8
:0403DC00AFC0000CA2
:0403E000081000FF02
:0403E4008FC20008BC
:0403E80000021200FD
:0403EC00AFC2000894
:0403F0008FC2000CAC
:0403F400244200019E
:0403F800AFC2000C84
:0403FC008FC3000C9F
:040400008FC2002087
:040404000062102A58
:04040800104000019F
:04040C00081000F9DB
:040410003C0110019A
:04041400342200246A
:040418008C42000012
:04041C00AFC200105B
:040420008FC3001076
:040424008FC200087B
:04042800006210243A
:04042C000002102A90
:04043000304200FF57
:04043400001EE8219D
:040438008FBE001C57
:04043C0027BD0020B8
:0404400003E00008CD
:00000001FF
